{"abi":[{"type":"constructor","inputs":[],"stateMutability":"nonpayable"},{"type":"function","name":"addPoints","inputs":[{"name":"_of","type":"address","internalType":"address"},{"name":"_amount","type":"uint256","internalType":"uint256"}],"outputs":[{"name":"","type":"bool","internalType":"bool"}],"stateMutability":"nonpayable"},{"type":"function","name":"addRef","inputs":[{"name":"_of","type":"address","internalType":"address"}],"outputs":[{"name":"","type":"bool","internalType":"bool"}],"stateMutability":"nonpayable"},{"type":"function","name":"createAcc","inputs":[{"name":"_for","type":"address","internalType":"address"}],"outputs":[{"name":"","type":"bool","internalType":"bool"}],"stateMutability":"nonpayable"},{"type":"function","name":"getTotalPoints","inputs":[],"outputs":[{"name":"","type":"uint256","internalType":"uint256"}],"stateMutability":"view"},{"type":"function","name":"getTotalUsers","inputs":[],"outputs":[{"name":"","type":"uint256","internalType":"uint256"}],"stateMutability":"view"},{"type":"function","name":"getUser","inputs":[{"name":"user","type":"address","internalType":"address"}],"outputs":[{"name":"","type":"tuple","internalType":"struct EventCore.USER","components":[{"name":"username","type":"bytes","internalType":"bytes"},{"name":"points","type":"uint256","internalType":"uint256"},{"name":"referalCount","type":"uint256","internalType":"uint256"},{"name":"pohVerified","type":"bool","internalType":"bool"},{"name":"accountInitialized","type":"bool","internalType":"bool"}]}],"stateMutability":"view"},{"type":"function","name":"operators","inputs":[{"name":"","type":"address","internalType":"address"}],"outputs":[{"name":"","type":"bool","internalType":"bool"}],"stateMutability":"view"},{"type":"function","name":"owner","inputs":[],"outputs":[{"name":"","type":"address","internalType":"address"}],"stateMutability":"view"},{"type":"function","name":"renounceOwnership","inputs":[],"outputs":[],"stateMutability":"nonpayable"},{"type":"function","name":"setOpStat","inputs":[{"name":"_of","type":"address","internalType":"address"},{"name":"state","type":"bool","internalType":"bool"}],"outputs":[],"stateMutability":"nonpayable"},{"type":"function","name":"setUserName","inputs":[{"name":"user","type":"address","internalType":"address"},{"name":"_name","type":"bytes","internalType":"bytes"}],"outputs":[{"name":"","type":"bool","internalType":"bool"}],"stateMutability":"nonpayable"},{"type":"function","name":"setVerificationStat","inputs":[{"name":"_for","type":"address","internalType":"address"},{"name":"stat","type":"bool","internalType":"bool"}],"outputs":[{"name":"","type":"bool","internalType":"bool"}],"stateMutability":"nonpayable"},{"type":"function","name":"subPoints","inputs":[{"name":"_of","type":"address","internalType":"address"},{"name":"_amount","type":"uint256","internalType":"uint256"}],"outputs":[{"name":"","type":"bool","internalType":"bool"}],"stateMutability":"nonpayable"},{"type":"function","name":"transferOwnership","inputs":[{"name":"newOwner","type":"address","internalType":"address"}],"outputs":[],"stateMutability":"nonpayable"},{"type":"function","name":"userActivated","inputs":[{"name":"addr","type":"address","internalType":"address"}],"outputs":[{"name":"","type":"bool","internalType":"bool"}],"stateMutability":"view"},{"type":"event","name":"OwnershipTransferred","inputs":[{"name":"previousOwner","type":"address","indexed":true,"internalType":"address"},{"name":"newOwner","type":"address","indexed":true,"internalType":"address"}],"anonymous":false},{"type":"error","name":"OwnableInvalidOwner","inputs":[{"name":"owner","type":"address","internalType":"address"}]},{"type":"error","name":"OwnableUnauthorizedAccount","inputs":[{"name":"account","type":"address","internalType":"address"}]}],"bytecode":{"object":"0x608060405234801561001057600080fd5b50338061003757604051631e4fbdf760e01b81526000600482015260240160405180910390fd5b61004081610046565b50610096565b600080546001600160a01b038381166001600160a01b0319831681178455604051919092169283917f8be0079c531659141344cd1fd0a4f28419497f9722a3daafe3b4186f6b6457e09190a35050565b610b73806100a56000396000f3fe608060405234801561001057600080fd5b50600436106100f55760003560e01c806376d7e93411610097578063bad0188211610066578063bad0188214610212578063dfba52c714610225578063f2fde38b14610238578063f3fff9d71461024b57600080fd5b806376d7e934146101c95780638da5cb5b146101dc5780639be572f6146101f7578063b14736f6146101ff57600080fd5b8063326bfcc1116100d3578063326bfcc11461017a578063507cd30f1461018c5780636f77926b1461019f578063715018a6146101bf57600080fd5b806313e7c9d8146100fa578063145b65ab1461013257806328bb6d5414610145575b600080fd5b61011d6101083660046107a7565b60046020526000908152604090205460ff1681565b60405190151581526020015b60405180910390f35b61011d6101403660046107a7565b61025e565b61011d6101533660046107a7565b6001600160a01b031660009081526003602081905260409091200154610100900460ff1690565b6001545b604051908152602001610129565b61011d61019a3660046107c9565b6102d6565b6101b26101ad3660046107a7565b61037c565b60405161012991906107f3565b6101c76104a0565b005b61011d6101d7366004610898565b6104b4565b6000546040516001600160a01b039091168152602001610129565b60025461017e565b61011d61020d36600461095a565b610536565b61011d6102203660046107a7565b61059d565b6101c761023336600461095a565b61060c565b6101c76102463660046107a7565b61063f565b61011d6102593660046107c9565b61067d565b3360009081526004602052604081205460ff16151560011461029b5760405162461bcd60e51b815260040161029290610996565b60405180910390fd5b6001600160a01b03821660009081526003602052604081206002018054600192906102c79084906109cc565b9091555060019150505b919050565b3360009081526004602052604081205460ff16151560011461030a5760405162461bcd60e51b815260040161029290610996565b6001600160a01b038316158061031e575081155b1561032857600080fd5b6001600160a01b038316600090815260036020526040812060010180548492906103539084906109cc565b92505081905550816001600082825461036c91906109cc565b9091555060019150505b92915050565b6103b26040518060a001604052806060815260200160008152602001600081526020016000151581526020016000151581525090565b6001600160a01b03821660009081526003602052604090819020815160a081019092528054829082906103e4906109df565b80601f0160208091040260200160405190810160405280929190818152602001828054610410906109df565b801561045d5780601f106104325761010080835404028352916020019161045d565b820191906000526020600020905b81548152906001019060200180831161044057829003601f168201915b5050509183525050600182015460208201526002820154604082015260039091015460ff8082161515606084015261010090910416151560809091015292915050565b6104a8610713565b6104b26000610740565b565b3360009081526004602052604081205460ff1615156001146104e85760405162461bcd60e51b815260040161029290610996565b6001600160a01b03831615801590610501575060008251115b61050a57600080fd5b6001600160a01b038316600090815260036020526040902061052c8382610a6a565b5060019392505050565b3360009081526004602052604081205460ff16151560011461056a5760405162461bcd60e51b815260040161029290610996565b506001600160a01b038216600090815260036020819052604090912001805482151560ff19909116179055600192915050565b3360009081526004602052604081205460ff1615156001146105d15760405162461bcd60e51b815260040161029290610996565b6001600160a01b0382166000908152600360208190526040822001805461ff00191661010017905560028054600192906102c79084906109cc565b610614610713565b6001600160a01b03919091166000908152600460205260409020805460ff1916911515919091179055565b610647610713565b6001600160a01b03811661067157604051631e4fbdf760e01b815260006004820152602401610292565b61067a81610740565b50565b3360009081526004602052604081205460ff1615156001146106b15760405162461bcd60e51b815260040161029290610996565b6001600160a01b03831615806106c5575081155b156106cf57600080fd5b6001600160a01b038316600090815260036020526040812060010180548492906106fa908490610b2a565b92505081905550816001600082825461036c9190610b2a565b6000546001600160a01b031633146104b25760405163118cdaa760e01b8152336004820152602401610292565b600080546001600160a01b038381166001600160a01b0319831681178455604051919092169283917f8be0079c531659141344cd1fd0a4f28419497f9722a3daafe3b4186f6b6457e09190a35050565b80356001600160a01b03811681146102d157600080fd5b6000602082840312156107b957600080fd5b6107c282610790565b9392505050565b600080604083850312156107dc57600080fd5b6107e583610790565b946020939093013593505050565b60006020808352835160a0602085015280518060c086015260005b8181101561082a5782810184015186820160e00152830161080e565b50600060e0828701015260208601516040860152604086015160608601526060860151925061085d608086018415159052565b608086015180151560a08701529250601f01601f19169390930160e001949350505050565b634e487b7160e01b600052604160045260246000fd5b600080604083850312156108ab57600080fd5b6108b483610790565b9150602083013567ffffffffffffffff808211156108d157600080fd5b818501915085601f8301126108e557600080fd5b8135818111156108f7576108f7610882565b604051601f8201601f19908116603f0116810190838211818310171561091f5761091f610882565b8160405282815288602084870101111561093857600080fd5b8260208601602083013760006020848301015280955050505050509250929050565b6000806040838503121561096d57600080fd5b61097683610790565b91506020830135801515811461098b57600080fd5b809150509250929050565b60208082526006908201526506e6f74206f760d41b604082015260600190565b634e487b7160e01b600052601160045260246000fd5b80820180821115610376576103766109b6565b600181811c908216806109f357607f821691505b602082108103610a1357634e487b7160e01b600052602260045260246000fd5b50919050565b601f821115610a65576000816000526020600020601f850160051c81016020861015610a425750805b601f850160051c820191505b81811015610a6157828155600101610a4e565b5050505b505050565b815167ffffffffffffffff811115610a8457610a84610882565b610a9881610a9284546109df565b84610a19565b602080601f831160018114610acd5760008415610ab55750858301515b600019600386901b1c1916600185901b178555610a61565b600085815260208120601f198616915b82811015610afc57888601518255948401946001909101908401610add565b5085821015610b1a5787850151600019600388901b60f8161c191681555b5050505050600190811b01905550565b81810381811115610376576103766109b656fea264697066735822122062b4e8e82ba5b2626c52bea77db6d24f51295d52f34d1c1c3255163ce8352c0664736f6c63430008170033","linkReferences":{}},"methodIdentifiers":{"addPoints(address,uint256)":"507cd30f","addRef(address)":"145b65ab","createAcc(address)":"bad01882","getTotalPoints()":"326bfcc1","getTotalUsers()":"9be572f6","getUser(address)":"6f77926b","operators(address)":"13e7c9d8","owner()":"8da5cb5b","renounceOwnership()":"715018a6","setOpStat(address,bool)":"dfba52c7","setUserName(address,bytes)":"76d7e934","setVerificationStat(address,bool)":"b14736f6","subPoints(address,uint256)":"f3fff9d7","transferOwnership(address)":"f2fde38b","userActivated(address)":"28bb6d54"},"id":24}